:020000040800F2
:10000000C0060020450100087F140008530D0008B9
:100010007B1400088D0B0008672100080000000019
:100020000000000000000000000000001D16000895
:10003000910B0008000000000515000831170008AA
:100040005F0100085F0100085F0100085F01000810
:100050005F0100085F0100085F0100085F01000800
:100060005F0100085F0100085F0100085F010008F0
:100070005F0100085F0100085F0100085F010008E0
:100080005F0100085F0100085F0100085F010008D0
:100090005F0100085F0100085F0100085F010008C0
:1000A0005F0100085F0100085F0100085F010008B0
:1000B000951700085F010008551900085F01000846
:1000C0005F0100085F0100085F0100085F01000890
:1000D0005F010008B91D0008291F00085F01000822
:1000E0005F0100085F0100085F0100085F01000870
:1000F0005F0100085F0100085F0100085F01000860
:100100005F0100085F0100085F0100085F0100084F
:100110005F0100085F0100085F0100085F0100083F
:100120005F0100085F0100085F0100085F0100082F
:10013000DFF80CD000F09CFC004800475148000854
:10014000C00600200648804706480047FEE7FEE755
:10015000FEE7FEE7FEE7FEE7FEE7FEE7FEE7FEE777
:1001600035170008310100082DE9F0410024061B75
:10017000254671F1000605DA01240027D0EB0700BF
:1001800067EB0101161E73F1000605DA0027D2EBBA
:100190000702012567EB030300F02CFB86460E46A1
:1001A00017469C46AC4204D00025D0EB050E65EB0B
:1001B000010624B10020D2EB000760EB030C70466F
:1001C00031463A466346BDE8F081D2B201E000F81C
:1001D000012B491EFBD270470022F6E710B51346EB
:1001E0000A4604461946FFF7F0FF204610BD30B519
:1001F00004460020034600E05B1C934203D2E05C0F
:10020000CD5C401BF8D030BDF0B480EA0102D40FC1
:100210004200B2EB410F02D20246084611464A00A4
:1002200042D0C30DDDB2C1F3C752AD1A202D35DA6D
:10023000C1F3160141F4000204B15242C5F1200697
:1002400002FA06F12A411044B3EBD05F23D0C4B1C7
:10025000012DA0EBC35009DCF0BC4FF0004202EAD4
:10026000C352DBB200F5000000F02FBB400000F1EC
:10027000807000EBC350A0F1807040EAD17049005B
:1002800009E0490841EAC071A0EBC35000F5000045
:10029000400800EBC350F0BC00F00EBB61420122ED
:1002A00002EB4101001BF6E7F0BC704781F0004112
:1002B000AAE780F00040A7E780EA010210B502F04B
:1002C0000043400022D04A001FD0010E01EB126112
:1002D000C0F35600C2F3560240F4000042F400029C
:1002E000A0FB022000047F39140400D0401C50EA17
:1002F000124001D44000491EC2B20C0604EBD010DB
:10030000401C4008802A02D003E0002010BD20F0ED
:100310000100002900DA0020184310BD30B480EA43
:10032000010202F0004530F0004221F0004013D0FD
:1003300090B1C30DD40DC2F31601C0F31600E41A38
:1003400041F4000140F400027D34914201D3641C69
:1003500000E04900002C02DA30BC002070474FF466
:1003600000000023914201D3891A034340084FEA59
:100370004101F7D151B1914202D14FF0004105E066
:1003800002D24FF0010101E06FF0010103EBC45014
:10039000284430BC00F090BA2DE9FE4F804681EA37
:1003A0000300C00F0C46009021F0004123F00045EF
:1003B000B8EB0200A94105D24046214690461C46B2
:1003C0000B46024623F00040104347D0270DC7F3E9
:1003D0000A00C3F30A510290401A019040286BDAD8
:1003E000C3F3130040F4801B0098924620B1002311
:1003F000D2EB030A63EB0B0B01985946C0F14002A4
:10040000504600F028FA06460D4650465946019AD5
:1004100000F040FA10EB08006141002487EA115215
:1004200084EAE7731A4340D0009A62B3019A012A22
:100430004FEA075215DC001B61EB02014FF000424E
:1004400002EA0752CDE90042001C41F58011324614
:100450002B4600F077FA03B0BDE8F08F4046214606
:10046000F9E7001B61EB0201001C41F58013001845
:100470005B412018A2F5001747EB030140EAD57055
:10048000B6196D4111E06D084FEA360645EAC075B0
:100490004FEA0752001B61EB0201001C41F580117D
:1004A00049084FEA30000019514132462B4603B04B
:1004B000BDE8F04F00F037BA009801224000002359
:1004C000D0EB020263EBE073009821464FEAE07440
:1004D000B8EB000061EB0401E9E783F000435BE760
:1004E00081F0004158E72DE9FE4F81EA030404F052
:1004F000004421F0004100944FF0000B23F0004332
:1005000050EA01045ED052EA03045BD0C3F30A54FC
:10051000C1F30A552C44A4F2F3340194A0FB025415
:10052000C1F3130141F48011C3F3130343F48013A7
:1005300001FB024400FB034E840A970A44EA8154FB
:1005400047EA8357A4FB076802958D0A05FB0785D8
:100550004FEA932C04FB0C542705029D4FEA0658E2
:1005600047EA1637B5EB08056EEB070C870E920EBF
:1005700047EA811742EA8312A7FB0201B6EB0B019F
:1005800064EB00042B0D43EA0C335E1844EB1C5063
:10059000DA465146E7FB0201C5F313044FEA0B3379
:1005A00043EA14534FEA0432019C43EA0603A4F1E0
:1005B0000C040294009CCDE900B400F0C3F903B030
:1005C000BDE8F08F00200146F9E72DE9F04D81EA02
:1005D000030404F0004B21F0004514464FF0000ADC
:1005E00023F0004150EA050220D054EA01021DD058
:1005F000C5F30A570246C5F31303C1F31300C1F351
:100600000A5640F4801543F48013A7EB0608101B2C
:10061000D64608F2FD3873EB050002D308F1010855
:1006200001E092185B41B8F1000F03DA00200146A7
:10063000BDE8F08D00204FF48011064684460EE0A0
:10064000171B73EB050705D3121B63EB050306436A
:100650004CEA010C49084FEA300092185B4150EA1D
:100660000107EDD152EA030012D082EA040083EAC6
:100670000501084305D0101BAB4106D2012200231F
:1006800006E000224FF0004302E06FF00102531039
:100690001AEB06004CEB085110EB0A0041EB0B0182
:1006A000BDE8F04D00F03FB9C10F80EAE0700844AA
:1006B000CA079623002100F008B9962300221146AC
:1006C00000F003B90EB5C10F80EAE0700844CA0714
:1006D000002140F233438DE80E000A460B4600F03D
:1006E00031F903B000BD00F0004220F00040C10D20
:1006F000C0F3160040F400007F2901DA00207047A3
:10070000962903DCC1F19601C84001E09639884082
:10071000002AF4D04042704720F00040C10DC0F3E1
:10072000160040F400007F2901DA00207047962966
:1007300003DCC1F19601C840704796398840704784
:1007400000F0004230F000400AD0C10D01F56071A8
:10075000C0F3160042EA0151C20840071143704736
:1007600000200146704701F0004330B421F0004101
:1007700050EA010206D00A0DA2F56072C1F313011E
:10078000002A02DC30BC00207047440F44EAC10458
:10079000C100E01830BC00EBC25000F08DB8000082
:1007A000002801DBC0F10040002901DBC1F100415C
:1007B00081427047002801DBC0F10040002901DBC5
:1007C000C1F100418842704730B50B460146002018
:1007D0002022012409E021FA02F59D4205D303FA03
:1007E00002F5491B04FA02F52844151EA2F1010284
:1007F000F1DC30BD2DE9F05F0546002092469B46B6
:1008000088460646814640241BE028464146474626
:10081000224600F02FF853465A46C01A914110D391
:1008200011461846224600F016F82D1A67EB01080B
:100830004F4622460120002100F00DF817EB000979
:100840004E41201EA4F10104DFDC484631462A4611
:100850004346BDE8F09F202A04DB203A00FA02F16B
:10086000002070479140C2F1200320FA03F319439E
:1008700090407047202A04DB203A21FA02F0002140
:10088000704721FA02F3D040C2F1200291400843A0
:1008900019467047202A06DBCB17203A41FA02F0AE
:1008A00043EAE07306E041FA02F3D040C2F12002CD
:1008B00091400843194670470029A8BF7047401C63
:1008C000490008BF20F00100704710B4B0FA80FC66
:1008D00000FA0CF050EA010404BF10BC704749B1A3
:1008E000CCF1200421FA04F411FA0CF118BF012113
:1008F00021430843A3EB0C01CB1D4FEA00614FEAF3
:10090000102042BF002010BC704700EBC3501044C1
:100910000029A4BF10BC7047401C490008BF20F04C
:10092000010010BC704710B5141E73F1000408DA02
:10093000401C41F1000192185B411A4301D120F0A3
:10094000010010BD2DE9F04D92469B4611B1B1FA60
:1009500081F202E0B0FA80F220329046FFF77BFF8E
:1009600004460F4640EA0A0041EA0B0153465A4644
:10097000084313D0114653EA010019D0C8F14002D0
:100980005046FFF777FF05460E4650465946424609
:10099000FFF761FF084305D0012004E020463946F7
:1009A000BDE8F08D0020054346EAE0762C4337434E
:1009B0000A986305E40AA0EB08000022FD0A44EA55
:1009C00047540A3002D500200146E9E70105101915
:1009D0006941DDE9084500196941BDE8F04DA2E72C
:1009E00070B521F0004303430CD0C1F30A55002435
:1009F000D5EB040564EB0403D617AD1AB34102DB53
:100A00000020014670BD201841EB025170BDC1F3BA
:100A10000A52C1F3130140F2FF3341F480119A42AC
:100A200002DA00200146704740F233439A42A2F2B4
:100A3000334202DC5242FFF71DBFFFF70CBF00003C
:100A400030B5041E71F1000404DB4FF00044404255
:100A500064EB0101141E73F1000405DB1C464FF02A
:100A60000043524263EB0403994208BF904230BDF9
:100A7000064C074D06E0E06840F0010394E80700EB
:100A800098471034AC42F6D3FFF756FBF47F0008CA
:100A9000148000082DE9F04D00231A461B1A8A41E4
:100AA00003DB00200146BDE8F08DC1F30A52C1F31B
:100AB000130141F480154FF0000BD10702D100184B
:100AC0006D41521E0027044640F2FF11384601EBEB
:100AD000620A3E468046024600204FF48011FFF72E
:100AE000C9FEC2197141BB1846EB0100B4EB030CFF
:100AF00075EB000C04D3E41A65EB000517460E46AF
:100B0000241908F101006D4180463428E3DDF9190C
:100B100046EB0600091BA84103D24FF0FF321346F3
:100B200001E0002213461BEB070046EB0A51BDE82B
:100B3000F04DFFF7F8BE70B58C1810F8015B15F09A
:100B4000070301D110F8013B2A1106D110F8012B3F
:100B500003E010F8016B01F8016B5B1EF9D12B0764
:100B600005D40023521E0DD401F8013BFAE710F81A
:100B7000013BCB1A921C03E013F8015B01F8015B07
:100B8000521EF9D5A142D8D3002070BD00BFFEE7A8
:100B900070472DE9F0410246002500260020002381
:100BA0000024002791F803C00CF00F0591F803C052
:100BB0000CF0100CBCF1000F03D091F802C04CEA0D
:100BC000050591F800C0BCF1000F31D01468002079
:100BD0002BE04FF0010C0CFA00F3B1F800C00CEA66
:100BE00003069E4220D183004FF00F0C0CFA03F74E
:100BF000BC4305FA03FC4CEA040491F803C0BCF1C1
:100C0000280F06D14FF0010C0CFA00FCC2F814C0FA
:100C10000AE091F803C0BCF1480F05D14FF0010C78
:100C20000CFA00FCC2F810C0401C0828D1D3146094
:100C3000B1F800C0BCF1FF0F34DD546800202EE095
:100C400000F1080C4FF0010808FA0CF3B1F800C0ED
:100C50000CEA03069E4221D183004FF00F0C0CFAE0
:100C600003F7BC4305FA03FC4CEA040491F803C003
:100C7000BCF1280F05D100F1080C08FA0CF8C2F8F5
:100C8000148091F803C0BCF1480F07D100F1080CA3
:100C90004FF0010808FA0CF8C2F81080401C082830
:100CA000CED35460BDE8F081F0B50A46002300249D
:100CB0000021002500F00046B6F1004F02D11D4E84
:100CC000F16901E01B4E7168C0F3034583B200F483
:100CD0004016B6F5401F08D121F07061154E7668B8
:100CE00026F07066134F7E6012E000F48016B6F5B1
:100CF000801F06D1032606FA05F4A14341F0706176
:100D000006E0460D360103FA06F6B14341F0706184
:100D100022B1460D360103FA06F6314300F00046D3
:100D2000B6F1004F02D1034EF16101E0014E716056
:100D3000F0BD0000000001400246002093680B4017
:100D40000BB1012000E00020704741617047016154
:100D5000704700BFFEE7000010B5044614B1012043
:100D6000234908702248007858B310212148FFF722
:100D7000E3FF50B108211F48FFF7DEFF28B1012132
:100D80001D48FFF7D9FF01281BD10A2002F0C0FA45
:100D900000201749087010211648FFF7CDFF08B949
:100DA000012010BD08211348FFF7C6FF08B9022033
:100DB000F7E701211048FFF7BFFF012815D10320F5
:100DC000EFE710210B48FFF7B7FF01280DD10821ED
:100DD0000848FFF7B1FF012807D101210648FFF7B6
:100DE000ABFF10B90120024908700020D9E70000CC
:100DF00040000020001801400008014008B5012112
:100E0000102000F091FB4FF4C040ADF8000010201E
:100E10008DF8030003208DF8020069460448FFF7AF
:100E2000B8FE4FF4C0410248FFF78FFF08BD000035
:100E3000001001402DE9FC4104460D4616466B4664
:100E400006223B21682000F042FA0746BFB99DF810
:100E500001009DF8001040EA012000B220809DF8BA
:100E600003009DF8021040EA012000B228809DF89E
:100E700005009DF8041040EA012000B23080384699
:100E8000BDE8FC812DE9FC4104460D4616466B4643
:100E900006224321682000F01AFA0746BFB99DF8E0
:100EA00001009DF8001040EA012000B220809DF86A
:100EB00003009DF8021040EA012000B228809DF84E
:100EC00005009DF8041040EA012000B23080384649
:100ED000BDE8FC812DE9F84F6B46022241216820D4
:100EE00000F0F5F99DF801009DF8001040EA01209E
:100EF0000FFA80FA5046FFF7E5FB804600220B4BC5
:100F0000FFF763FB06460A4A0A4BFFF745FA044619
:100F1000FFF729FC834608495846FFF7CDF90446F8
:100F2000FFF7E1FB00B2BDE8F88F0000004075401C
:100F3000A4703D0AD74342400000C84210B50020CB
:100F40000E4908600E48006820F470400C490860A3
:100F50000846006840F44050086000200949C1F884
:100F6000AC0100F011F801200449086000F00CF811
:100F700000200449C1F8A80110BD0000A881214249
:100F8000040C01400080214210B5022002F0E6F975
:100F900010BD000008B50121082000F0C5FA4FF48B
:100FA0004060ADF8000010208DF8030003208DF89C
:100FB000020069460448FFF7ECFD4FF44061024827
:100FC000FFF7C5FE08BD0000000C014010B5002071
:100FD0000E4908600E48006820F470400C49086013
:100FE0000846006840F44050086001200949C1F8F3
:100FF000AC01FFF7C9FF012004490860FFF7C4FFF7
:1010000000200449C1F8A80110BD0000A8812142B8
:10101000040C01400080214270B5054600241648AA
:10102000006820F47040144908600846006840F4E5
:1010300000400860002614E0002010490860FFF717
:10104000A3FF01200E49C1F8A8016006040E0B4859
:101050007C38006808B1601CC4B2FFF795FF701CB3
:10106000C6B2082EE8DB15B9FFF7B0FF01E0FFF7C5
:1010700065FF204670BD0000040C0140A88121429C
:101080000080214270B504461248006820F4704088
:10109000104908600846006840F44050086000208D
:1010A0000D490860002512E0E0090B49091D0860A0
:1010B0006006040E01200949C1F8A801FFF764FF8A
:1010C000002005490860FFF75FFF681CC5B2082DC6
:1010D000EADB70BD040C0140A8812142008021425E
:1010E00010B50E48006820F470400C4908600846AE
:1010F000006840F44050086001200949086009492F
:10110000C1F8A801FFF740FF002005490860FFF77C
:101110003BFF00200349C1F8A80110BD040C0140A9
:10112000AC8121420080214210B50E48006820F4B5
:1011300070400C4908600846006840F44050086060
:101140000020094908600949C1F8AC01FFF71CFFFC
:101150000120054908600549C1F8AC01FFF714FFFB
:1011600010BD0000040C0140A881214200802142F2
:1011700010B500241448006820F47040124908603B
:101180000846006840F40040086001200F490860EC
:10119000FFF7FAFE01200E49C1F8A801FFF7F4FE9F
:1011A00007E0601CC4B2FA2C03DDFFF7BDFF01208D
:1011B00010BD0648803800680028F2D10349091F95
:1011C000086000BFF4E70000040C0140AC8121423C
:1011D0000080214238B50121084600F0A5F901211F
:1011E000042000F0A1F94FF40040ADF800001020F9
:1011F0008DF8030003208DF8020069462248FFF7AE
:10120000C8FC01212148FFF74FFD0020204908605C
:10121000FFF7C0FE80216B2000F0DDF8642002F0B3
:1012200077F800216B2000F0D6F8032000F091F849
:10123000002000F086F8322000F0B0F800213820BD
:1012400000F0C9F800216A2000F0C5F80021232031
:1012500000F0C1F88021372000F0BDF8752000F0C3
:1012600019F80446682C0BD101216B2000F0B3F86B
:1012700000216C2000F0AFF8322000F08FF801E080
:10128000012038BD0020FCE70008014000023000CA
:10129000BC01214270B50446FFF722FFD020FFF7C2
:1012A000F1FEFFF765FF2046FFF7ECFEFFF760FF5A
:1012B000FFF716FFD120FFF7E5FEFFF759FF0020EB
:1012C000FFF7AAFE0546FFF72FFF284670BD2DE960
:1012D000F04106460F4614461D46FFF701FF002168
:1012E00041EA4601C8B2FFF7CDFEFFF741FF20B14A
:1012F000FFF71AFF0120BDE8F0813846FFF7C2FE74
:10130000FFF736FFFFF7ECFE012101EB4601C8B203
:10131000FFF7B8FEFFF72CFF0DE0012C04D10020F1
:10132000FFF77AFE287003E00120FFF775FE2870B2
:10133000601EC4B26D1C002CEFD1FFF7F5FE00203B
:10134000D9E710B50446E006010E1C2000F043F872
:1013500010BD10B50446E006010E1B2000F03BF85E
:1013600010BD70B504460025BC2C01DB012510E042
:10137000622C01DB02250CE02A2C01DB032508E0AE
:10138000142C01DB042504E00A2C01DB052500E018
:10139000062529461A2000F01EF870BD70B50446D7
:1013A000B4F57A7F01DD4FF47A74042C00DA04245A
:1013B0004FF47A7090FBF4F0401EC5B22946192014
:1013C00000F009F80546264604EBD671C1F34F003C
:1013D000FFF7C7FF70BD70B505460C46FFF780FEEE
:1013E000D020FFF74FFEFFF7C3FE18B1FFF79CFEBA
:1013F000012070BD2846FFF745FEFFF7B9FE2046E5
:10140000FFF740FEFFF7B4FE18B1FFF78DFE012095
:10141000EFE7FFF789FE0020EBE72DE9F0410546F5
:101420000E4617469846FFF75BFE002141EA45014C
:10143000C8B2FFF727FEFFF79BFE20B1FFF774FE4F
:101440000120BDE8F0813046FFF71CFEFFF790FE5B
:1014500000240CE018F80400FFF714FEFFF788FEE4
:1014600018B1FFF761FE0120EBE7601CC4B2BC427B
:10147000F0DBFFF759FE0020E3E700BFFEE770470F
:1014800070B5002100230F22C47804B3154C2468E2
:1014900004F4E064C4F5E064210AC1F10403CA4025
:1014A000447804FA03F184781440214309010E4C76
:1014B0000678A155047804F01F050124AC40057896
:1014C0006D11AD0005F1E025C5F8004109E0047893
:1014D00004F01F050124AC40044D0678761145F850
:1014E000264070BD0CED00E000E400E080E100E08B
:1014F00002490143024A1160704700000000FA05EA
:101500000CED00E07047000029B1064AD2690243A1
:10151000044BDA6104E0034AD2698243014BDA6189
:10152000704700000010024029B1064A9269024348
:10153000044B9A6104E0034A92698243014B9A6129
:10154000704700000010024030B500210022002446
:1015500000232D4D6D6805F00C0121B1042905D043
:10156000082923D105E0294D056022E0274D0560BB
:101570001FE0254D6D6805F47012234D6D6805F46C
:101580008034022505EB92421CB9214D554305607C
:101590000BE01D4D6D6805F400351DB11C4D554324
:1015A000056002E0194D5543056002E0174D0560E6
:1015B00000BF00BF144D6D6805F0F0010909154D1D
:1015C0006B5C0568DD4045600F4D6D6805F4E061BA
:1015D000090A104D6B5C4568DD4085600A4D6D68F9
:1015E00005F46051C90A0B4D6B5C4568DD40C56070
:1015F000054D6D6805F44041890B074D6B5CC5686E
:10160000B5FBF3F5056130BD0010024000127A0011
:1016100000093D001400002024000020704710B590
:1016200000F002F810BD00000CB500200190009001
:101630003348006840F480303149086000BF3048CA
:10164000006800F4003000900198401C0190009860
:1016500018B90198B0F5A06FF1D12948006800F4DD
:10166000003010B10120009001E0002000900098AF
:10167000012843D12348006840F010002149086048
:101680000846006820F0030008600846006840F043
:10169000020008601A4840681949486008464068D6
:1016A00048600846406840F48060486008464068EA
:1016B00020F47C1048600846406840F4E810486018
:1016C0000846006840F08070086000BF0C48006861
:1016D00000F000700028F9D00948406820F00300AD
:1016E000074948600846406840F00200486000BF73
:1016F0000348406800F00C000828F9D10CBD000038
:101700000010024000200240042808D14FF0E021E0
:10171000096941F004014FF0E022116107E04FF048
:10172000E021096921F004014FF0E02211617047C6
:101730007047000010B51348006840F001001149DF
:10174000086008464068104908400E49486008464D
:1017500000680E4908400B4908600846006820F4FC
:10176000802008600846406820F4FE0048604FF47E
:101770001F008860FFF753FF4FF0006004490860C6
:1017800010BD0000001002400000FFF8FFFFF6FE51
:1017900008ED00E070B50121880700F015F9B8B137
:1017A0000121880700F0F5F80A480068FEF7C8FF35
:1017B000044622460B4608A000F0D8FC0948006801
:1017C00018B909A000F0D2FC02E009A000F0CEFC9C
:1017D00070BD000084000020266A3D252E3033664F
:1017E0000A0A00008C00002026713D310A0A000020
:1017F00026713D300A0A00007FB505460C460121DE
:101800000846FFF781FEADF80850ADF8044000200F
:10181000ADF80A00ADF8060001A94FF0804000F0D5
:101820004BFA01221146900700F0DFF81C208DF8DA
:10183000000000208DF8010003208DF80200012037
:101840008DF803006846FFF71BFE0121880700F0B2
:10185000A3F87FBD30B595B005460C4601210220A6
:10186000FFF752FE01210D20FFF75EFEC020ADF80C
:10187000500018208DF8530003208DF8520014A951
:101880003148FFF786F90320ADF8500018208DF895
:10189000530003208DF8520014A92C48FFF779F962
:1018A000ADF84850ADF844400020ADF84A00ADF81E
:1018B000460011A9264800F0FFF96020ADF8340079
:1018C0000120ADF836000020ADF83C000DA92048FD
:1018D00000F094F86020ADF824000120ADF8260057
:1018E0000020ADF82C0009A9194800F0D3F86020B9
:1018F000ADF814000120ADF816000020ADF81C0072
:1019000005A9134800F026F96020ADF80400012075
:10191000ADF806000020ADF80C0001A90C4800F05D
:1019200073F908210A4800F007F90821084800F077
:1019300061F90821064800F0A5F90121044800F0EA
:101940002BF815B030BD000000080140000C01402C
:101950000004004010B501210A4800F035F80128C4
:101960000AD10949086980470021064800F0A2F918
:101970006421044800F093F90121024800F009F8BD
:1019800010BD000000080040EC000020CA430282A5
:101990007047CA430282704721B1028842F00102B7
:1019A000028004E002884FF6FE731A4002807047FE
:1019B0000146888C704702460020138A0B400BB109
:1019C000012000E00020704730B5024600200023CF
:1019D0000024158A05EA0103958905EA010413B17B
:1019E0000CB1012000E0002030BD1AB183890B4307
:1019F000838102E083898B438381704770B5002423
:101A000000220023058C4FF6FE7635400584028CBB
:101A10008388048B4FF68F752C40B51E2C400D88A3
:101A20002C43751E2A400D892A434D882A43144DA4
:101A3000A8420BD0134DA84208D0134DA84205D0A0
:101A4000124DA84202D0124DA84213D14FF6F7759D
:101A50002A404D892A434FF6FB752A408D882A4338
:101A60004FF6FF652B404FF6FF552B408D892B43DA
:101A7000CD892B4383800483CD888586028470BD05
:101A8000002C01400034014000400140004401406E
:101A90000048014070B5002400220023058C4FF659
:101AA000EF7635400584028C8388048B48F6FF75F9
:101AB0002C404FF6FF452C400D884FF6FF7606EA86
:101AC00005252C434FF6DF752A400D8906EA0515DA
:101AD0002A434D8806EA05152A43154DA84202D02F
:101AE000144DA8421DD14FF67F752A404D894FF6FF
:101AF000FF7606EA05152A434FF6BF752A408D8802
:101B000006EA05152A434FF6FF352B404FF2FF75C5
:101B10002B408D8906EA85052B43CD8906EA85058C
:101B20002B4383800483CD880587028470BD000029
:101B3000002C0140003401400A460021018B4FF285
:101B4000FF7319404FF6FF7303EA02231943018321
:101B50007047000070B5002400220023058C4FF66A
:101B6000FF6635400584028C8388848B4FF68F7521
:101B70002C404FF6FC752C400D882C434FF6FF553A
:101B80002A400D894FF6FF7606EA05252A434D883F
:101B900006EA05252A43154DA84202D0144DA84255
:101BA0001DD14FF2FF752A404D894FF6FF7606EAA8
:101BB00005252A434FF6FF352A408D8806EA05257C
:101BC0002A434EF6FF752B404DF6FF752B408D894D
:101BD00006EA05152B43CD8906EA05152B438380BC
:101BE0008483CD888587028470BD0000002C01406D
:101BF000003401400A460021818B4FF6F7731940EB
:101C0000114381837047000070B500220023002437
:101C1000058C4EF6FF7635400584038C8488828BD4
:101C200048F6FF752A404FF6FF452A400D884FF6CB
:101C3000FF7606EA05252A434DF6FF752B400D89F0
:101C400006EA05352B434D8806EA05352B430B4D37
:101C5000A84202D00A4DA84208D14BF6FF752C408D
:101C60008D894FF6FF7606EA85152C4384808283A2
:101C7000CD88A0F84050038470BD0000002C0140C6
:101C8000003401400A460021818B4FF2FF73194056
:101C90004FF6FF7303EA022319438183704781855E
:101CA0007047818670470187704781877047A0F829
:101CB0004010704781847047002202881D4B984273
:101CC0000ED01D4B98420BD0B0F1804F08D01B4B6B
:101CD000984205D01A4B984202D01A4B984204D130
:101CE0004FF68F731A404B881A43174B984207D010
:101CF000164B984204D04FF6FF431A40CB881A4344
:101D000002808B8883850B8803850A4B98420BD011
:101D1000094B984208D00E4B984205D00D4B984283
:101D200002D00D4B984201D10B7A038601238382A6
:101D300070470000002C01400034014000040040C6
:101D400000080040000C004000100040001400405B
:101D50000040014000440140004801407FB5054675
:101D60000C4601210420FFF7CFFBADF80850ADF879
:101D700004400020ADF80A00ADF8060001A90D48A6
:101D8000FFF79AFF012241210A48FFF72EFE1E208D
:101D90008DF8000003208DF801008DF8020001206D
:101DA0008DF803006846FFF76BFB01210148FFF740
:101DB000F3FD7FBD0008004010B540F225515448A6
:101DC00000F010F9002871D0514800F0C7F9C4B2F2
:101DD000642C33D014DC352C64D008DC312C3FD09B
:101DE000322C47D0332C49D0342C20D150E0362C23
:101DF0005DD0612C19D0622C1AD0632CF5D11AE079
:101E0000692C7DD008DC652C1BD0662C65D0672C36
:101E10006AD0682C79D16DE06F2C1BD0732C56D012
:101E2000752C11D07A2C70D14BE002F0B1FB6CE034
:101E300001F0E4F969E002F0CFFC66E003F0EEFEA9
:101E400063E003F0DFFF60E04FF4C0413148FEF78C
:101E50007EFF5AE04FF4C0412E48FEF776FF54E073
:101E60002D480078192804DA2B480078401C2A49AC
:101E700008704AE010202849087046E0264800789B
:101E8000072804DD24480078401E234908703CE000
:101E9000224800780A2804DA20480078401C1F49AC
:101EA000087032E006201D4908702EE02EE01B4825
:101EB0000078072804DD19480078401E174908708B
:101EC00023E001201649087003F09CFF1DE000206C
:101ED0001349087003F096FF17E0012011490860CC
:101EE000486012E00CE0FFE701200E490860022084
:101EF00048600AE002200B4908600120486004E0C5
:101F0000022008490860486000BF00BF10BD000003
:101F10000038014000100140330000203200002052
:101F2000340000203800002010B540F2255123482D
:101F300000F058F800283FD0204800F00FF9C4B254
:101F4000642C20D006DC612C0BD0622C0FD0632CCB
:101F500031D112E0652C1CD06F2C26D0752C2AD1E3
:101F60001DE002F015FB16A000F000F923E001F0DF
:101F700045F913A000F0FAF81DE002F02DFC10A0C6
:101F800000F0F4F817E003F049FE0DA000F0EEF8C1
:101F900011E003F037FF0AA000F0E8F80BE04FF47F
:101FA000C0410948FEF7D3FE05E04FF4C0410648A2
:101FB000FEF7CBFE00BF00BF10BD00000044004094
:101FC0005945530D0A0000000010014021B18289DB
:101FD00042F40052828104E082894DF6FF731A4078
:101FE0008281704770B5024600240023002500203E
:101FF00040F66A16B14200D100BFC1F3421501F0AC
:102000001F03012606FA03F3012D02D196893340FE
:1020100006E0022D02D1168A334001E0968A334051
:102020000C12012606FA04F41688344013B10CB1E0
:10203000012000E0002070BDF0B50346002400261A
:102040000025002040F66A17B94200D100BF1846AB
:10205000C1F3421401F01F06012707FA06F5012C0F
:1020600001D10C3004E0022C01D1103000E014301A
:102070001AB107682F43076002E00768AF430760A3
:10208000F0BD00002DE9F04786B005460E4600245D
:10209000A24600BFA1460027B08900B100BF2F466D
:1020A0002C8A4CF6FF700440F08804432C82AC89E3
:1020B0004EF6F3100440B088318908437189084313
:1020C0000443AC81AC8A4FF6FF400440B08904431E
:1020D000AC8201A8FFF738FA1F48874202D1DDF829
:1020E00010A001E0DDF80CA0A88900F4004040B188
:1020F0000AEBCA0000EB0A1031684900B0FBF1F8A6
:1021000007E00AEBCA0000EB0A1031688900B0FB57
:10211000F1F86420B8FBF0F004012009642101FB10
:102120001089A88900F4004040B1322000EBC900BA
:10213000B0FBF1F000F00700044308E0322000EBB0
:1021400009106421B0FBF1F000F00F0004432C8172
:1021500006B0BDE8F08700000038014001468888DD
:10216000C0F30800704700BFFEE700000FB4054B46
:1021700010B503A9044A029800F04CF910BC5DF8B0
:1021800014FB0000514000082C000020490050EAD8
:10219000C12018BF04204A0D18BF40F0010040F2D2
:1021A000FF72B2EB515F08BF40F00200012808BF88
:1021B000052070472DE9F0414F1E00EBC701044692
:1021C000D1E9000115461E4637F006020DD02A4619
:1021D0003346FEF788F97F1E04EBC703D3E90023DB
:1021E000FEF7DAF837F00602F1D1022F25D0042FDE
:1021F00013D0062F18BFBDE8F0812A463346FEF7FC
:1022000072F9D4E90A23FEF7C7F82A463346FEF7E7
:102210006AF9D4E90823FEF7BFF82A463346FEF7E9
:1022200062F9D4E90623FEF7B7F82A463346FEF7EB
:102230005AF9D4E90423FEF7AFF82A463346FEF7ED
:1022400052F9D4E90223FEF7A7F82A463346FEF7EF
:102250004AF9D4E90023BDE8F041FEF79DB8012218
:10226000FEF7BEBBFEF798B8002213461046114693
:10227000FEF7ABB9024A00201107FEF7B1BB000020
:1022800001FDFFFF02E008C8121F08C1002AFAD1B1
:1022900070477047002001E001C1121F002AFBD1E6
:1022A000704700000149086070470000E00100200D
:1022B0002DE9FF5FDDE90220010DDDF838B00243B2
:1022C00018D044F61050A1F2FF3141430D140F987D
:1022D000012820D0A5EB0B00401C5FEA000A4FF05C
:1022E0000004474EDFF81C91A046504616D5CAF1AF
:1022F000000728E00F98012443A2012808D00021FC
:1023000000980F9BC0E90021C0E90243BDE8FF9F90
:102310006FEA0B01F4E7CBF10000DEE7074612E0BD
:10232000F80707D02246334640464946FEF7DBF819
:10233000804689462246334610461946FEF7D3F8B2
:1023400004460E467F10002FEAD1DDE90201BAF102
:10235000000F42464B4602DAFEF7C5F801E0FEF7F1
:1023600034F904460E460022284BFEF769FB03D8D9
:102370004FF0FF30014607E00022254B2046314652
:10238000FEF70AF8FEF743FB102409E0002C0ADBF5
:102390000A220023FEF72EFA019B30321A55641EE2
:1023A00050EA0102F2D1641C019AC4F111031444F1
:1023B0000F9A012A03D0012208430DD10AE00843F5
:1023C00004D000204FF0110B0F9080E7A3EB0B051A
:1023D0006D1E0DE05B4504DD4FF0000205F10105C7
:1023E00004E003DA4FF00002A5F10105002AECD069
:1023F00000980F99C0E90231C0E9004586E7000066
:10240000000024400000F03F300000000000F043D6
:102410000000E03F2DE9FF4F95B09B4689460646F8
:1024200000250FE2252877D100242746F84A01210C
:10243000059400E0044316F8013F203B01FA03F045
:102440001042F7D130782A2811D06FF02F0330785E
:10245000A0F13002092A16D8059A44F0020402EBD2
:10246000820203EB42021044761C0590EFE759F814
:10247000042B0592002A03DA504244F400540590DC
:1024800044F00204761C30782E2816D116F8010F7D
:1024900044F004042A280DD06FF02F023078A0F108
:1024A0003003092B09D807EB870302EB4303C71856
:1024B000761CF3E759F8047B761C30786C280FD033
:1024C00006DC4C2817D068280DD06A2814D104E007
:1024D000742810D07A280FD10DE044F400140AE0DB
:1024E00044F4801401E044F440147278824202D132
:1024F00004F58014761C761C307866280BD013DC2B
:10250000582877D009DC002875D04528F6D0462811
:10251000F4D047281AD19DE118E0632835D064280B
:1025200079D0652812D195E1702873D008DC67282E
:10253000F1D069286FD06E280DD06F2806D1B5E094
:1025400073282CD0752875D0782874D05A461799DE
:1025500090476D1C75E1C4F30250022809D003288E
:102560000DD0D9F8001004280DD00D6009F1040930
:1025700067E1D9F80010EA17C1E90052F6E7D9F887
:1025800000100D80F2E70D70F0E719F8041B8DF8CC
:10259000001000208DF80100EA46012003E059F800
:1025A00004AB4FF0FF3061074FF0000102D40DE0A3
:1025B00008F101018846B9420FDA8045F8DB1AF8C4
:1025C00008100029F4D108E008F101018846814291
:1025D000FADB1AF808100029F6D105985B46A0EB43
:1025E000080721463846179A00F094FA284400EB71
:1025F000080507E04DE029E10DE01AF8010B5A4605
:1026000017999047B8F10108F7D25B462146384642
:10261000179A13E142E00A220092C4F302524FF0EB
:10262000000A022A08D059F804CB032A4FEAEC71B9
:102630000AD00DE029E02AE009F1070121F00702A4
:10264000F2E802C1914609E00FFA8CFC4FEAEC7106
:10265000042A03D14FFA8CFC4FEAEC71002907DA07
:102660000A460021DCF1000C61EB02012D2202E0A0
:10267000220504D52B228DF80420012203E0E20775
:1026800001D02022F7E7904659E00A2102E010220B
:102690000DE010214FF0000A00910BE010224FF0E6
:1026A000000A44F004040827009203E008224FF0D7
:1026B000000A0092C4F30252022A05D059F804CB52
:1026C0000021032A08D009E009F1070121F00702DF
:1026D000F2E802C1914605E01FFA8CFC042A01D100
:1026E0000CF0FF0C4FF00008220728D5702806D008
:1026F000009B83F0100353EA0A0305D00EE040224A
:102700008DF80420012208E05CEA010206D03022A4
:102710008DF804208DF8050002229046009B83F07E
:10272000080353EA0A030AD15CEA010201D16207F5
:1027300005D530228DF804204FF001087F1E58285F
:1027400004D034A003900EA802900DE036A0F9E763
:1027500053466046009AFEF74DF884460398825C23
:102760000298401E029002705CEA0100F0D10298CB
:1027700006A9081A00F1200A600702D524F4803463
:1027800000E00127574502DDA7EB0A0000E000202A
:1027900000EB0A01009005984144401A0590E003BF
:1027A00006D45B462146179A059800F0B3F9054414
:1027B000002706E001A85A46C05D179990476D1C96
:1027C0007F1C4745F6DBE0030CD55B462146179A94
:1027D000059800F09FF9054404E030205A46179907
:1027E00090476D1C0099481E00900029F5DC08E018
:1027F000029802995A460078491C0291179990470D
:102800006D1CBAF10001AAF1010AF1DC65E10000DA
:1028100009280100303132333435363738396162B6
:10282000636465660000000030313233343536377A
:1028300038394142434445460000000000F058F951
:102840000544761C307800287FF4ECAD19B028469A
:10285000BDE8F08F620700D4062709F1070222F0D5
:10286000070CFCE80223E14603F000485FEA080C8D
:1028700002D00FF2702C0DE05FEA045C02D50FF27B
:10288000682C07E05FEAC47C02D00FF2602C01E004
:10289000AFF2700C4FF0FF3823F00043CDF850C07A
:1028A00065280CD006DC452809D046281DD04728CD
:1028B0003DD13DE0662818D067287ED138E0002160
:1028C000112F01DB112000E0781CCDE9000106A9E1
:1028D0000EA8FFF7EDFCDDE90F010E9A0391002130
:1028E000009207F1010A04914DE04FF0004000977B
:1028F000CDE9011006A90EA8FFF7DAFCDDE90F0209
:1029000003920E9B11990022DDF80CA00093049213
:1029100011B9791C00EB010AB7EB0A0004D4C0F12D
:10292000FF3007F1010A0490AAEB0700019044E090
:10293000012F00DA01270021112F01DD112000E015
:102940003846CDE9000106A90EA8FFF7B1FCDDE984
:102950000F010E9A0391002104910092BA462107BB
:102960000CD40399514500DA8A46BAF1010F05DD0E
:10297000009AAAF10101515C302908D0B84202DA6C
:1029800010F1040F06DA0121CDE9011015E0AAF1DA
:102990000101E9E7002805DC049901440491AAEB50
:1029A000000102E0411C514500DD8A460499401AAD
:1029B000401C01904FF000400290200704D4019881
:1029C000504501DBCDF8048000208DF84F000298BF
:1029D0000DF14F07B0F1004F25D02B200E9002983B
:1029E0004FF0020800280CDA404202902D200E9091
:1029F00007E00A210298FDF7E7FE3031029007F860
:102A0000011DB8F10001A8F10108F2DC02980028CC
:102A1000EFD1791E0E980870307800F0200040F059
:102A2000450007F8020D12A8C01B00F10708149812
:102A3000007800B1012000EB0A01019801EBE07180
:102A400005984144401A401E0590E00306D45B46B9
:102A50002146179A059800F05DF80544149800780F
:102A600018B15A46179990476D1CE00324D55B4670
:102A70002146179A059800F04DF805441CE004988B
:102A8000002807DBDDE90301884203DD0098405C94
:102A9000179901E0179930205A469047049805F19C
:102AA0000105401C04900198401E019004D12E2085
:102AB0005A46179990476D1CBAF10001AAF1010A14
:102AC000DDDC05E017F8010B5A46179990476D1C9D
:102AD000B8F10001A8F10108F4DC5B462146179A21
:102AE0000598ABE62D0000002B0000002000000040
:102AF0002DE9F041044600251E461746880404D4FB
:102B000005E039462020B0476D1C641EF9D52846E3
:102B1000BDE8F0812DE9F041044600251E469046AF
:102B2000C80301D5302700E02027880404D505E03C
:102B300041463846B0476D1C641EF9D52846BDE8AD
:102B4000F08100002DE9FE4F06460F46002568463D
:102B500001F08CFA002442E056F8240057F82410C3
:102B6000A0EB010ABAF1000F01DB514601E0CAF106
:102B700000010846FDF798FD83464FF08F41FDF7B1
:102B8000CDFB80465DF824000021FDF709FE16D03C
:102B90005DF824104046FDF7C1FB82464FF07E51A0
:102BA000FDF784FB814629F0004A0F48416A5046F0
:102BB000FDF700FE12D20120A04005430EE00A48B6
:102BC000C1694046FDF7ECFD05D30748016A404660
:102BD000FDF7F0FD02D20120A0400543641C032C48
:102BE000BADB2846BDE8FE8FA07100082DE9F04D44
:102BF0008D4F21F0004A86B005460C46BA452ADBC7
:102C0000AAEB070028430AD08848824501DC1AD184
:102C1000CDB106B02846BDE8F04DFFF720BB844A91
:102C2000844B2846FDF75FFC07460E46824A834BDD
:102C300028462146FDF757FC06B03A463346BDE824
:102C4000F04DFDF7A9BB0120FFF72CFB06B0BDE856
:102C5000F04DFFF709BB7A48824542DABAF1795F55
:102C60000BDA2846FFF792FA042808BFFFF702FBA9
:102C7000284606B02146BDE8F08D2A460B46104690
:102C8000FDF731FC834602466E480E460B46062190
:102C90007844FFF78FFA5A463346FDF724FC804606
:102CA00069488A465A46334604217844FFF782FA37
:102CB0005A463346FDF717FC00223B46FDF76CFBF6
:102CC00002460B4640465146FDF77FFC2A46234606
:102CD000FDF709FC06B02A462346BDE8F04DFDF796
:102CE0005BBB284624F0004100223D463B46FDF7F1
:102CF000F7FB4FF0FF32FDF773FE064602465348DE
:102D00000F460B4606217844FFF754FA32463B46FD
:102D1000FDF7E9FBCDE900014D4832463B46042171
:102D20007844FFF747FA32463B46FDF7DCFB0022CA
:102D30002B46FDF731FB834602913046394603F0BE
:102D40003BF8804643480D46504517DCDDE900015D
:102D50005A46029BFDF739FC42462B46FDF7C3FB62
:102D600042462B46FDF718FB0122FDF739FE304A9B
:102D7000304BFDF7B2FB304A304B4CE04FF0000ACD
:102D800052460B464046FDF707FBCDE9031052467D
:102D90002B4610461946FDF7A6FB32463B46FDF78B
:102DA0009FFBDDE90332FDF710FC06460F46DDE927
:102DB00000015A46029BFDF708FC83460091012260
:102DC00030463946FDF70CFE194A1A4BFDF788FBD1
:102DD00006460F46012240462946FDF701FE5A46A7
:102DE000009BFDF780FB32463B46FDF776FB06462F
:102DF0000F46012250462946FDF7F2FD0E4DDFF841
:102E000058802A464346FDF76BFB32463B46FDF7AA
:102E100067FB2A464346FDF763FB002CD8BF81F0D1
:102E2000004106B0BDE8F08D0000F03F0000F07FEB
:102E3000075C143326A6913C182D4454FB21F93F1E
:102E40000000E03F2C51000042510000B65000004D
:102E5000CC5000003333EF3FFB21E93F2DE9F84F21
:102E600004460D4621F0004000917349814211DC77
:102E70007249884201DC06D12CB120462946BDE8C2
:102E8000F84FFFF7ECB96E48002DCCBF6D496E4985
:102E9000BDE8F88F6D49814211DD6D498142D8BF8F
:102EA0004FF0FF366DDD20462946FFF76FF9042805
:102EB00008BFFFF7DFF920462946BDE8F88F6549CE
:102EC000654F25F00045814233DD6449814219DDBB
:102ED000002632464FF0804320462946FDF75CFA33
:102EE00080468A46012220462946FDF779FD0022C8
:102EF0003B46FDF7F2FA42465346FDF766FB0446B1
:102F00000D463EE001260022BA463B4620462946B1
:102F1000FDF742FA80460F460022534620462946D6
:102F2000FDF7DBFA42463B46FDF74FFB04460D46F4
:102F300027E04B4981421BDDDFF828A10226002251
:102F4000534620462946FDF7CEFA00223B46FDF7C0
:102F500023FA80460F460022534620462946FDF7B5
:102F6000BCFA42463B46FDF730FB04460D4608E0FE
:102F7000032622462B4600203B49FDF726FB04464C
:102F80000D4622462B4610461946FDF7ACFA8B46F5
:102F9000824602460B46FDF7A6FA0746024633482C
:102FA00088460B4606217844FFF704F952465B46F3
:102FB000FDF799FA82462E488B463A46434605214C
:102FC0007844FFF7F7F83A464346FDF78CFA024695
:102FD0000B46002E504659460CDAFDF7DDF9224625
:102FE0002B46FDF780FA01B022462B46BDE8F04F94
:102FF000FDF776BAFDF7D0F922462B46FDF773FAB6
:103000001C4A7A4402EBC603D3E90023FDF765FAB4
:1030100022462B46FDF761FA174A7A4402EBC603B3
:10302000D3E90023FDF75CFA009A002AB8BF81F0CB
:103030000041BDE8F88F0000000010440000F07F60
:10304000182D4454FB21F93FFB21F9BF0000DC3F60
:103050000000203E0000F33F0000F03F0000E63F8C
:10306000008003400000F83F0000F0BFCE4E00009B
:103070008C4E00002A4E0000F24D00002DE9F04D6C
:103080009446CCF1000423F000464CEA0404524F6D
:1030900046EAD4749A46884621F00042BC4206D8DB
:1030A000454240EA050442EAD474BC4204D9BDE872
:1030B000F04D6246FFF7D6B8AAF14055A5F17F65FD
:1030C00055EA0C040BD0022404EAAA74434DDFF83D
:1030D00010E144EAD87452EA000B04D00CE0BDE8D9
:1030E000F04DFFF7BBBE002C14BF012CBDE8F08DE6
:1030F000022C30D0032C32D056EA0C0B0AD0BE4240
:1031000020D1BA4209D126F0804622F080423346CF
:10311000114617E000291ADB25E0DFF8C8B0FB44B0
:10312000002C04BFDBE90001BDE8F08D012C02BFDB
:10313000DBE9000181F00041BDE8F08D022C0AD0EE
:10314000032C0CD0BA4212D1B8F1000F0BDA23488D
:103150002549BDE8F08D28462449BDE8F08D284674
:103160007146BDE8F08D1D482149BDE8F08D921BE8
:1031700012153C2AC4BF19481D490EDCBAF1000FD4
:10318000BEBF12F13C0F0020014606DB6246FDF790
:103190001CFA21F00041FFF761FE002C08BFBDE8DA
:1031A000F08D012C04BF81F00041BDE8F08D114A83
:1031B000114B022C07D0FDF790F92A46BDE8F04DDF
:1031C0000A4BFDF78AB9FDF788F92A46BDE8F04DAC
:1031D000064BFDF785B900000000F07F182D445420
:1031E000FB2109C0864D0000FB21F9BFFB210940EE
:1031F000FB21F93F075C143326A6A13C10B5002043
:103200000B49086001200B49C1F8900100200849D2
:103210000831086001200749C1F89801C821064813
:10322000FEF743FDC8210448FEF741FD10BD000034
:103230008C81214200802142000400402DE9F041B0
:103240000446E07800F0C006E07800F03F056078C2
:1032500000F0010098B1EF102846E91705EB517115
:10326000C910A5EBC101491C01F0FF080B4800681B
:1032700020B10A48414602683846904700BF60784E
:1032800000F0080030B10548406818B1B011034A99
:10329000516888470020BDE8F0810000AC020020A2
:1032A00010B520210848FDF747FD48B10A2000F07D
:1032B0002FF820210448FDF73FFD18B1012010BD73
:1032C0000020FCE700BFFAE70008014010B56FF0EE
:1032D0000400FEF719FA0A4800680A49B0FBF1F049
:1032E000094908700846007800EB4001C1EBC010A6
:1032F0004FF6FF7101EAC0000449088010BD0000CC
:103300000000002000127A00280000202A0000207F
:103310000146114A12884A434FF0E0235A610022C5
:103320009A611A46126942F001021A6100BF4FF019
:10333000E022106900F001021AB100F48032002A84
:10334000F5D04FF0E022126922F001024FF0E023A5
:103350001A6100229A6170472A0000200146114A32
:1033600012784A434FF0E0235A6100229A611A46CC
:10337000126942F001021A6100BF4FF0E0221069A9
:1033800000F001021AB100F48032002AF5D04FF0AB
:10339000E022126922F001024FF0E0231A610022BC
:1033A0009A6170472800002010B52848006801285D
:1033B00014D126480C30006880B9012024490870D7
:1033C000084600782349097888423DD02048007893
:1033D0002049087020A0FEF7C9FE35E01B480068B0
:1033E000A0B91A480C30006801280FD1184908709C
:1033F0000846007817490978884225D01448007893
:103400001449087016A0FEF7B1FE1DE00F480068D1
:10341000012814D10D480C30006801280FD10C4947
:103420000870084600780B49097888420CD0084893
:103430000078084908700CA0FEF798FE04E0002010
:10344000044908700249087010BD00003081214213
:10345000350000203600002026783D310A0A0000A1
:1034600026783D320A0A000026783D330A0A000019
:1034700038B5044664B120208DF8000028208DF86E
:10348000010030208DF8020038208DF8030004E0A0
:10349000A32204216846FCF798FE6A46042140F600
:1034A0009E2002F077FB01F061FF38BD3EB5044677
:1034B00002208DF80000CA208DF80100E3208DF86D
:1034C000020009208DF803006A460421682002F0FA
:1034D00061FBA3208DF8000004F0400048B1C0203B
:1034E0008DF80100C8208DF80200C2208DF803007D
:1034F00006E0A3208DF801008DF802008DF803008E
:1035000004F4C07048B1C4208DF80400CC208DF8BC
:103510000500C6208DF8060006E0A3208DF8040003
:103520008DF805008DF80600A3208DF807008DF8B2
:1035300008008DF809006A460A2140F6A72002F02B
:1035400029FB04F0030018B120208DF8000002E0F0
:10355000D8208DF800006A46012140F6B62002F01E
:1035600019FB04F0200018B1012000F0ADF802E0D2
:10357000002000F0A9F804F4C07008B304F48070CF
:1035800060B1B2208DF800008B208DF80100B620CC
:103590008DF802009B208DF803000BE0B0208DF821
:1035A000000080208DF80100B4208DF802009020EA
:1035B0008DF803006A46042140F6A22002F0EAFAE0
:1035C00004F0010020B3F8208DF800006A460121C4
:1035D0004FF40B6002F0DEFAFA21072000F02CFC19
:1035E000072000F0F3FB012000F013FC642000F042
:1035F000F3FC4FF4FA7000F002FDC821304800F0EF
:10360000A3FB282000F0BCFB0A2000F0CCFB08E064
:10361000D8208DF800006A4601214FF40B6002F0BB
:10362000B9FA04F0020018B1D9208DF8000002E0C8
:10363000D8208DF800006A46012140F23D7002F06A
:10364000A9FA04F0040018B1012000F069F802E0C2
:10365000002000F065F804F0100018B10120FFF719
:1036600007FF02E00020FFF703FF44F008001549C0
:10367000488101F07BFE00201249887304F040006D
:1036800018B10846807B801D887304F4C07020B197
:103690000C48807B801D0B49887304F0140020B116
:1036A0000848807B10300749887304F0030020B17C
:1036B0000448807B001D0349887300203EBD000044
:1036C00009E3CA02AC0200203EB504466CB10EA16B
:1036D000D1E900208968CDE9002002916A460921DC
:1036E0004FF4976002F056FA3EBD0AA2D2E90010EC
:1036F0009268CDE9010200916A4609214FF4976072
:1037000002F048FAF0E70000B8AAB38DB4980D357E
:103710005D000000B8AAAAAAB088C3C5C70000000F
:1037200038B5044664B1C0208DF80000C2208DF881
:103730000100C4208DF80200C6208DF8030004E0CB
:103740008B2204216846FCF740FD6A46042140F6BE
:10375000982002F01FFA01F009FE38BD10B5C82309
:103760004FF48062024940F6F63001F093FC10BD40
:10377000C87100082DE9F04F8DB007468846154600
:103780009946DDE9166B0024002030806B49887B68
:103790005A4605A901F04AFD18B1601E0DB0BDE8FA
:1037A000F08F6648807A00F01400002867D09DF8FA
:1037B000140000069DF8151040EA01409DF816100F
:1037C00040EA01209DF81710084328609DF8180072
:1037D00000069DF8191040EA01409DF81A1040EAD1
:1037E00001209DF81B10084368609DF81C0000062E
:1037F0009DF81D1040EA01409DF81E1040EA01208E
:103800009DF81F100843A8609DF8200000069DF851
:10381000211040EA01409DF8221040EA01209DF865
:1038200023100843E86004F11000C4B228680014B3
:103830000190686800140290A86800140390E8687A
:103840000014049001984043029901FB0100039980
:1038500001FB0100049901FB010ABAF1706F02DB60
:10386000BAF1885F05DD01F081FD00203080401E47
:1038700094E7B6F9000040F48070308000BF2F4814
:10388000807A00F0400020B305A9601C085C095D47
:1038900040EA012000B2A8F8000005A9E01C095C7C
:1038A00005AAA01C105C41EA002000B2A8F80200A2
:1038B00005A9601D095C201D105C41EA002000B2D2
:1038C000A8F80400A01DC4B2B6F9000040F008003A
:1038D00030801A48408900F4C07008B305A9601C04
:1038E000085C095D40EA012000B2388005A9E01CAF
:1038F000095C05AAA01C105C41EA002000B2788097
:1039000005A9601D095C201D105C41EA002000B281
:10391000B880A01DC4B2B6F9000040F0700030803D
:103920000648807A00F0030018B105A90819FFF7CE
:1039300085FC484601F014F800202FE7AC02002077
:1039400070B588B0064601A801F0F8F9BDF804008A
:103950000021C90341EA5045C4034448007A00F0FD
:10396000030056F8200005904048007A00F004005B
:1039700010B10598404205903C48007AC0F3C10060
:1039800056F8200006903948007A00F0200010B167
:103990000698404206903548007AC0F3811056F8E8
:1039A000200007903148008900F4807010B107981A
:1039B000404207900598C117A0FB042301FB043186
:1039C00000FB0510810041EA927005900698C1172E
:1039D000A0FB042301FB043100FB0510810041EA38
:1039E000927006900798C117A0FB042301FB0431D5
:1039F00000FB0510810041EA927007900598000EC7
:103A00008DF808000598000C8DF809000598000A4B
:103A10008DF80A000598C0B28DF80B000698000ECC
:103A20008DF80C000698000C8DF80D000698000A21
:103A30008DF80E000698C0B28DF80F000798000EA2
:103A40008DF810000798000C8DF811000798000AF7
:103A50008DF812000798C0B28DF8130002AA0C214D
:103A60004FF4257002F096F808B070BDAC0200204B
:103A700030B585B0044616A207CA02AB07C3C82CEE
:103A800003DD4FF0FF3005B030BDC82090FBF4F0EF
:103A9000401E85B2280A8DF80000E8B28DF80100BA
:103AA0006A46022140F2162002F074F810B14FF07D
:103AB000FF30E8E702AA0C2140F6C12002F06AF8C4
:103AC00010B14FF0FF30DEE7044884810020DAE7D0
:103AD000FEF2ABC4AAF1DFDFBBAFDFDFAC02002038
:103AE0001FB504464848007A00F0030054F820004F
:103AF00001904548007A00F0040010B1019840425E
:103B000001904148007AC0F3C10054F820000290AF
:103B10003D48007A00F0200010B102984042029027
:103B20003948007AC0F3811054F8200003903648D9
:103B3000008900F4807010B103984042039033492B
:103B4000019880FB0101800F40EA810001902F491C
:103B5000029880FB0110820042EA917002902B498A
:103B6000039880FB0110820042EA91700390019853
:103B7000000E8DF800000198000C8DF801000198EE
:103B8000000A8DF802000198C0B28DF803006A4661
:103B900004214FF4747001F0FDFF18B14FF0FF30B5
:103BA00004B010BD0298000E8DF800000298000CC1
:103BB0008DF801000298000A8DF802000298C0B248
:103BC0008DF803006A4604214FF4757001F0E2FF9E
:103BD00010B14FF0FF30E3E70398000E8DF80000BE
:103BE0000398000C8DF801000398000A8DF802007C
:103BF0000398C0B28DF803006A4604214FF4767032
:103C000001F0C8FFCCE70000AC02002009E3CA02C3
:103C100010B586B0044647A00068039046A000682F
:103C2000029046A00068019045A00068009004F052
:103C3000030003A9085C8DF8140003A8C4F3C101B4
:103C4000405C8DF8150003A8C4F38111405C8DF829
:103C5000160004F0030002A9085C8DF8100002A809
:103C6000C4F3C101405C8DF8110002A8C4F38111B6
:103C7000405C8DF8120005AA032140F2264001F0B5
:103C800089FF18B14FF0FF3006B010BD04AA032120
:103C900040F22A4001F07EFF10B14FF0FF30F3E711
:103CA000019805900098049004F0040058B19DF824
:103CB000140040F001008DF814009DF8100040F051
:103CC00001008DF8100004F0200058B19DF8150097
:103CD00040F001008DF815009DF8110040F0010042
:103CE0008DF8110004F4807058B19DF8160040F072
:103CF00001008DF816009DF8120040F001008DF8CB
:103D0000120005AA03214FF4886001F043FF10B1AF
:103D10004FF0FF30B8E704AA032140F2314001F030
:103D200039FF10B14FF0FF30AEE7064804810020A4
:103D3000AAE700004CCD6C000CC92C00365676006A
:103D400026466600AC020020F8B505460E464FF444
:103D50007A7095FBF0F000FB06F4200E8DF8000061
:103D6000200C8DF80100200A8DF80200E0B28DF8D9
:103D700003006A4604214FF4AE7001F00BFFF8BD5A
:103D800038B50446052094FBF0F084B220128DF87B
:103D90000000E0B28DF801006A4602214FF4AD70D8
:103DA00001F0F8FE38BD38B50446052094FBF0F06C
:103DB00084B220128DF80000E0B28DF801006A464E
:103DC00002214FF4AC7001F0E5FE38BD38B5044671
:103DD0000020009004F0010020B19DF8000040F0A8
:103DE0003000009004F0020020B19DF8000040F087
:103DF0000C00009004F0040020B19DF8000040F099
:103E0000030000906A4601214FF4A47001F0C2FE45
:103E100038BD38B50446012C01DA012402E0042C37
:103E200000DD0424601EC0B200906A46012140F209
:103E30004F1001F0AFFE38BD2DE9FC4706460F4696
:103E400006F0070010B1B7F5C86F03DD4FF0FF3083
:103E5000BDE8FC873846FCF730FC81465949FCF741
:103E60005DFA8046684600F043FF9DF80000022896
:103E700006D0042816D0082826D0102848D135E0CE
:103E80004FF08D414046FCF717FA8146FCF744FCA1
:103E900084B24D494046FCF70FFA8146FCF73CFCE2
:103EA00085B238E04FF08C414046FCF705FA814678
:103EB000FCF732FC84B245494046FCF7FDF98146E7
:103EC000FCF72AFC85B226E04FF08B414046FCF718
:103ED000F3F98146FCF720FC84B23D494046FCF7EB
:103EE000EBF98146FCF718FC85B214E04FF08A41EB
:103EF0004046FCF7E1F98146FCF70EFC84B23549F7
:103F00004046FCF7D9F98146FCF706FC85B202E091
:103F10004FF0FF309CE700BF20128DF80400E0B2A4
:103F20008DF8050028128DF80600E8B28DF807001C
:103F300006F00100A0B101AA02214FF4EA7001F0DD
:103F400029FE10B14FF0FF3082E70DF10602022189
:103F50004FF4927001F01EFE10B14FF0FF3077E782
:103F600006F00200A0B101AA02214FF4EC7001F0AA
:103F700011FE10B14FF0FF306AE70DF10602022189
:103F80004FF4947001F006FE10B14FF0FF305FE780
:103F900006F00400A0B101AA02214FF4EE7001F076
:103FA000F9FD10B14FF0FF3052E70DF1060202218A
:103FB0004FF4967001F0EEFD10B14FF0FF3047E77F
:103FC000002045E700004843000040460000C0458F
:103FD000000040450000C04438B50446052094FB6D
:103FE000F0F085B228128DF80000E8B28DF80100DB
:103FF0006A4602214FF4EF7001F0CCFD38BD38B5B0
:104000000446052094FBF0F085B228128DF80000DC
:10401000E8B28DF801006A4602214FF4ED7001F01C
:10402000B9FD38BD08B501210420FDF77DFA032054
:10403000ADF8000004208DF8030003208DF8020085
:1040400069460248FCF7A5FD08BD000000080140D4
:1040500000BF054A128802F04002002AF9D0C2B21D
:10406000014B1B1D1A807047003801407CB5054686
:1040700028494968087801AB04220D21FDF727F98A
:1040800008B107207CBD9DF80700C0F301109DF822
:10409000041001F0E00140EAE1008DF800009DF815
:1040A0000700C0F381009DF8051001F0E00140EA2F
:1040B000E1008DF801009DF8070000F003009DF875
:1040C000061001F0E00140EAE1008DF80200002452
:1040D0001CE01DF8040018B9002045F8240013E086
:1040E0000D4845F8240006E055F824000B49FCF77C
:1040F000E3F845F824001DF80400401EC0B20DF896
:1041000004000028F0D100BF601CC4B2032CE0DB27
:104110000020B7E7440000207B14AE3E1D5A843FC8
:104120002DE9F04F87B005460C46914601208DF8E9
:10413000100000208DF81100FE4A1268917CFD4AA3
:104140005268107804AB0222FDF767F920B14FF0F6
:10415000FF3007B0BDE8F08FC820FFF7D9F8002086
:104160008DF81000F34A1268D17BF24A5268107839
:1041700004AB0122FDF751F910B14FF0FF30E8E731
:10418000EC4A12685179EB4A5268107804AB01226C
:10419000FDF743F910B14FF0FF30DAE7E54A126856
:1041A000917CE44A5268107804AB0122FDF735F99E
:1041B00010B14FF0FF30CCE7DE4A1268D17DDD4A06
:1041C0005268107804AB0122FDF727F910B14FF0C7
:1041D000FF30BEE7D74A12681179D64A5268107884
:1041E00004AB0122FDF719F910B14FF0FF30B0E731
:1041F0000C208DF81000CF4A12681179CD4A526810
:10420000107804AB0122FDF708F910B14FF0FF3030
:104210009FE70F20FFF77CF8C648806A407A8DF848
:104220001000C44A12689178C24A5268107804ABF0
:104230000122FDF7F2F810B14FF0FF3089E7BD48D9
:10424000806A007A8DF81000BA4A12685178B94A2B
:104250005268107804AB0122FDF7DFF810B14FF07F
:10426000FF3076E7B9F1000F07D0B248806A807A54
:1042700040F0E0008DF8100004E0AE48806A807ADB
:104280008DF81000AB4A12689179AA4A52681078EA
:1042900004AB0122FDF7C1F810B14FF0FF3058E731
:1042A000B9F1000F07D0A348806AC07A40F0E0005F
:1042B0008DF8100003E0A048C07A8DF810009D4AE8
:1042C0001268D1799B4A5268107804AB0122FDF73D
:1042D000A4F810B14FF0FF303BE7B9F1000F02D066
:1042E000C820FFF715F840208DF81000914A126899
:1042F0001179904A5268107804AB0122FDF78DF8CD
:1043000010B14FF0FF3024E778208DF81000894A73
:1043100012685179874A5268107804AB0122FDF780
:104320007CF810B14FF0FF3013E783498889FEF71E
:10433000EFFF00208DF810007E4A126851797D4A07
:104340005268107804AB0122FDF767F810B14FF006
:10435000FF30FEE6774A1268917A764A5268107802
:1043600004AB0222FCF7B3FF10B14FF0FF30F0E6D0
:104370009DF811009DF8101040EA012B0C209BFBCA
:10438000F0F0C6B20020A86068602860A06060609D
:104390002060824665E0674A1268D17A654A5268B1
:1043A000107804AB0C22FCF792FF10B14FF0FF30F5
:1043B000CFE69DF811009DF8101040EA012000B2F0
:1043C000ADF808009DF813009DF8121040EA012096
:1043D00000B2ADF80A009DF815009DF8141040EAEF
:1043E000012000B2ADF80C00BDF9081020680844A7
:1043F0002060BDF90A10606808446060BDF90C10C7
:10440000A0680844A0609DF817009DF8161040EAC7
:10441000012000B2ADF800009DF819009DF81810B9
:1044200040EA012000B2ADF802009DF81B009DF8A3
:104430001A1040EA012000B2ADF80400BDF90010E6
:10444000286808442860BDF902106868084468605C
:10445000BDF90410A8680844A8600AF1010000F042
:10446000FF0AB24597DB3448D0F800C02868C1176E
:10447000090441EA10410704624600233846FBF76D
:1044800073FE32460023CDE90201FBF76DFE286082
:104490002948D0F800C06868C117090441EA1041F2
:1044A0000704624600233846FBF75EFE32460023CF
:1044B000CDE90201FBF758FE68601F48D0F800C044
:1044C000A868C117090441EA1041070462460023A5
:1044D0003846FBF749FE32460023CDE90201FBF7DF
:1044E00043FEA8601448D0F804C02168C81700042F
:1044F00040EA11480F046246002338464146FBF764
:1045000033FE32460023CDE90201FBF72DFE206089
:104510000948D0F804C06068C117090441EA104195
:104520000704624600233846FBF71EFE324600238E
:1045300004E0000044000020A0710008CDE9020161
:10454000FBF712FE60601148D0F804C0A068C117E4
:10455000090441EA10410704624600233846FBF78C
:1045600003FE32460023CDE90201FBF7FDFDA0600A
:10457000A068002804DDA068A0F58030A06003E0FA
:10458000A06800F58030A0600020E2E5A07100087E
:1045900010B501200B49086000200B49C1F89001BB
:1045A000012008490831086000200749C1F8980136
:1045B000C8210648FDF779FBC8210448FDF777FBC1
:1045C00010BD00008C812142008021420004004087
:1045D00010B501200B49086000200B49C1F890017B
:1045E000012008490831086000200749C1F89801F6
:1045F00064210648FDF759FB64210448FDF757FB89
:1046000010BD00008C812142008021420004004046
:104610002DE9FC5F06460F4600253D4949680878AC
:1046200001AB03220D21FCF752FE10B10720BDE8BB
:10463000FC9F9DF8040000F01F008DF804009DF819
:10464000050000F01F008DF805009DF8060000F041
:104650001F008DF80600002456E056F8240057F895
:104660002410A0EB010BBBF1000F01DB594601E068
:10467000CBF100010846FCF717F84FF08F4100908E
:10468000FBF74CFE814601A8005D68B3214908682C
:10469000FCF713F8834659461F48FBF73FFE804658
:1046A00004E01E494046FBF707FE804601A8005D76
:1046B000401EC0B201A908550028F2D14146484623
:1046C000FBF72CFE83464FF07E51FBF7EFFD824651
:1046D0002AF0004B0F4881695846FCF76BF812D25C
:1046E0000120A04005430EE00A4801694846FCF756
:1046F00057F805D3074841694846FCF75BF802D2F2
:104700000120A0400543641C032CA6DB28468EE74D
:1047100044000020A071000800B04C4554E3853FE0
:1047200010B50446204600F00FF80346E01C00F0E8
:104730000BF843EAC00083B2A01D00F005F843EA7D
:10474000801083B2184610BD014691F90020002A5E
:1047500001DD00201EE091F90020002A01DA04208A
:1047600018E091F90120002A01DD012012E091F901
:104770000120002A01DA05200CE091F90220002A2C
:1047800001DD022006E091F90220002A01DA06206C
:1047900000E007207047000010B501210D48FCF72C
:1047A000CBFA98B102210B48FCF7C6FA70B10A2087
:1047B000FEF7AEFD02210748FCF7BEFA40B1012129
:1047C0000448FCF7B9FA18B1012010BD0020FCE73D
:1047D00000BFFAE70008014010B500200A49086050
:1047E00001200A49C1F890010749083108600020FA
:1047F0000649C1F89801C8210548FDF756FAC821B5
:104800000348FDF754FA10BD8C81214200802142FB
:104810000004004010B500200A49086001200A4940
:10482000C1F8900107490831086000200649C1F825
:10483000980164210548FDF738FA64210348FDF723
:1048400036FA10BD8C8121420080214200040040D4
:1048500086B0002501264FF4A060FCF749FE4FF416
:10486000165001F06BFB4FF4E13001F0B7FBFEF79F
:104870002DFDFCF7C3FA00F075F801F049FBFFF7D6
:10488000D1FBFCF7A7FC41F61F41C720FCF7E2FF74
:1048900041F61F4140F2CF70FCF7AEFF00BF00F0C1
:1048A000D7F90028FBD146E0FEF7FAFC2249086060
:1048B000FFF772FF214908600020FCF74DFA04461B
:1048C000012C03D106B900E0002006461C4A1D4910
:1048D0001D4800F0ABF8C0B9FCF7FCFA03AA04A924
:1048E00005A8FCF7A7FA6A4601A902A8FCF7CAFACC
:1048F0000A2095FBF0F100FB115030B91349104824
:104900000068FBF7D9FC07460025681CC5B21048B3
:1049100001781048FDF7C5F90F4801780D48FDF7FB
:10492000C2F90E48007808B101F088FA0B48007807
:1049300008B9FEF739FDB7E7880000208C00002099
:1049400084000020800000207C0000200000204126
:10495000320000200004004033000020340000201A
:104960007047000008B5012140F20910FCF7DCFD9A
:1049700001211048FCF798F97820ADF800001020CC
:104980008DF8030003208DF8020069460A48FCF701
:1049900000F908210848FCF7D8F910210648FCF76F
:1049A000D4F920210448FCF7D0F940210248FCF753
:1049B000CCF908BD00023000000C014070B504467F
:1049C000002624F00104184890F8240008B10020C3
:1049D00070BD1548807A10B94FF0FF30F8E71248E3
:1049E000057C807A2040104908740846007CA0426B
:1049F00002D04FF0FF3600E0002614B90A48007DCF
:104A000018B1012001F090F902E0002001F08CF9CA
:104A10003CB100F0ABFC20B1034805744FF0FF300F
:104A2000D6E73046D4E70000440000202DE9F04FDF
:104A300099B004460D4616464FF07E574FF00008D9
:104A40004FF000094FF0000A12A813A918AB0EAAE4
:104A5000CDE9001014A916A8FEF78CFE18B10120AC
:104A600019B0BDE8F08FBDF84C0000F4807000284C
:104A70007ED00E98FBF718FE83464FF09D41FBF762
:104A80004DFC07460F98FBF70FFE83464FF09D4104
:104A9000FBF744FC80461098FBF706FE83464FF078
:104AA0009D41FBF73BFC81461198FBF7FDFD8346DA
:104AB0004FF09D41FBF732FC824639464FF0804073
:104AC000FBF7FAFB49460590FBF7F6FB41460790DA
:104AD0004FF04040FBF7F0FB51460590FBF7ECFB35
:104AE00006900799FBF790FB8346FBF729FECDE97B
:104AF0000801FEF77BF84FF06632544BCDE90A010E
:104B0000FBF7F1FCCDE90C01FBF72DFE20604946D7
:104B10004FF08040FBF7D0FB49460290FBF7CCFBFF
:104B2000414604904FF04040FBF7C6FB41460290DF
:104B3000FBF7C2FB03900499FBF7B8FB83464FF0E9
:104B40007E51FBF761FB0590FBF7FAFDCDE908010B
:104B500039464FF08040FBF7AFFB41460390FBF72F
:104B6000ABFB494604904FF08040FBF7A5FB00E00B
:104B700068E051460390FBF79FFB83460499FBF7DF
:104B800043FB0590FBF7DCFDCDE90601DDE90823D9
:104B9000FEF774FA4FF066322C4BCDE90A01FBF7B1
:104BA000A2FCCDE90C01FBF7DEFD28605146504622
:104BB000FBF782FB494604904846FBF77DFB4146E4
:104BC00003904046FBF778FB394601903846FBF7E7
:104BD00073FB00900199FBF717FB02900399FBF719
:104BE00065FB83460499FBF761FB0590FBF7A8FD85
:104BF000CDE9080151463846FBF75EFB4946049073
:104C00004046FBF759FB03900499FBF7FDFA4FF080
:104C100080410590FBF750FB8346FBF791FDCDE902
:104C20000601DDE90823FEF729FA4FF06632074B4B
:104C3000CDE90A01FBF757FCCDE90C01FBF793FD29
:104C4000306001E002200BE7002009E766A64C4037
:104C500070B50024FCF79EF900F024F9002840D13B
:104C6000782000F02FFFC4B20CB1012070BD782075
:104C7000FFF7A4FEC4B20CB10220F7E7642000F0F5
:104C8000D3FEC4B20CB10320F0E7FEF767FDC4B257
:104C90000CB10420EAE71548FFF742FD0546FEF790
:104CA000B7FFC4B20CB10520E0E740F27310FEF785
:104CB000FDFBC4B20CB10620D8E76420FEF7D8FE95
:104CC000C4B20CB10720D1E700F0E4FF04460CB1F8
:104CD0000820CBE7012000F0A3FDC4B21CB10920DD
:104CE000C4E70A20C2E70020C0E7000070000020EF
:104CF00001461148407A30B1012807D0022808D077
:104D000003280CD108E0022008700BE00420087092
:104D100008E00820087005E01020087002E04FF05D
:104D2000FF30704700BF0448C07C18B108784006C7
:104D3000000E08700020F4E74400002001461348EC
:104D4000407A30B1012808D002280AD0032810D1B7
:104D50000BE04FF4804008800EE041F69C70088024
:104D60000AE04FF48050088006E04FF400600880AD
:104D700002E04FF0FF30704700BF0448C07C10B124
:104D80000888401008800020F5E70000440000205B
:104D900001460248007C0870002070474400002053
:104DA00001460F48007A30B1012807D0022809D007
:104DB00003280FD10AE0FA2008800EE04FF4FA70C1
:104DC00008800AE04FF47A70088006E04FF4FA6039
:104DD000088002E00020088000BF00BF002070476C
:104DE0004400002001460E48007A30B1012807D067
:104DF000022808D003280CD108E00A4808600BE01C
:104E00000948086008E00948086005E008480860AB
:104E100002E04FF0FF30704700BF0020FBE70000CA
:104E20004400002000000343000083423333034268
:104E30003333834101461248C07A082817D2DFE88D
:104E400000F01704070A0D101318BC20088013E0A7
:104E50006220088010E02A2008800DE014200880DD
:104E60000AE00A20088007E00520088004E000BF6F
:104E700000BF0020088000BF00BF00207047000076
:104E8000440000200146064890F8240010B14FF07D
:104E9000FF3070470248C08908800020F9E7000011
:104EA000440000201CB580208DF80000654A12687F
:104EB000917C644A526810786B460122FCF7ADFA87
:104EC00010B14FF0FF301CBD6420FEF721FA002026
:104ED0008DF800005B4A1268917C5A4A526810783B
:104EE0006B460122FCF799FA10B14FF0FF30EAE768
:104EF000544A1268917D534A526810786B460622D4
:104F0000FCF7E5F910B14FF0FF30DCE79DF8050044
:104F1000C007400F9DF8031001F0010140EA410075
:104F20009DF8011001F0010140EA010494B1012C47
:104F300003D101214348C17431E0022C03D1002187
:104F40004048C1742BE021463FA0FDF70FF94FF018
:104F5000FF30B8E73B4A1268D1783A4A5268107875
:104F60006B460122FCF7B3F910B14FF0FF30AAE70E
:104F70009DF8000000F00F042CB93D48FDF7F6F84D
:104F80004FF0FF309FE7042C06D13AA0FDF7EEF872
:104F900001212C48C17402E000212A48C174FF217C
:104FA00028488172FF2027490872FF212548417255
:104FB000C1724FF6FF71C181FF210174817401211B
:104FC000017380F82210002180F8231041750175CB
:104FD0001630016041608160163880F8241080F836
:104FE0002510C1844FF4FA6000F062FC10B14FF05C
:104FF000FF3068E7022000F02BFB10B14FF0FF30CC
:1050000061E72A2000F0CEFC10B14FF0FF305AE7E4
:10501000322000F009FD10B14FF0FF3053E70020BF
:10502000FFF7CCFC10B14FF0FF304CE7002000F050
:1050300051FB10B14FF0FF3045E7002000F042FD7A
:10504000002040E744000020556E737570706F7249
:1050500074656420736F6674776172652070726F17
:1050600064756374207265762025642E0A00000042
:10507000B07E000848616C662073656E7369746960
:1050800076697479207061727420666F756E642E13
:105090000A0000002DE9F04385B005460E46904613
:1050A0009946294890F8250020B14FF0FF3005B00F
:1050B000BDE8F08316B94FF0FF30F8E7002423E095
:1050C000281B102801DD102000E0281B87B23219B0
:1050D0003946204600F05EFD10B14FF0FF30E6E7A4
:1050E00001AA3946204600F001F910B14FF0FF3017
:1050F000DDE730193A4601A9FBF779F810B16FF0F6
:105100000100D4E7E01984B2AC42D9DB4FEA282091
:105110008DF8000008F0FF008DF801000A4A1268BF
:10512000917E094A526810786B460222FCF775F9A5
:1051300010B14FF0FF30BAE70121034880F8251085
:10514000A0F826900020B2E74400002038B50446BD
:10515000282C02DD4FF0FF3038BDDCB9002000F014
:10516000EBFB00208DF8000007208DF801002E4A8F
:105170001268917C2C4A526810786B460222FCF728
:105180004CF910B14FF0FF30E6E7002126480175D9
:105190000020E1E7012000F0CFFB20208DF8000087
:1051A000012C06D100208DF80100052000F0FAFB4B
:1051B00017E0052C06DC01208DF80100052000F029
:1051C000F1FB0EE0142C06DC02208DF801000A2011
:1051D00000F0E8FB05E003208DF80100142000F04A
:1051E000E1FB9DF80100072101EB8010C0B28DF8B2
:1051F00001000D4A1268917C0B4A526810786B4688
:105200000222FCF70AF910B14FF0FF30A4E70821A1
:105210000548817200210173012101750020FFF70B
:10522000CDFB002098E7000044000020F8B50446BC
:105230000F4616462C4890F8240010B94FF0FF3066
:10524000F8BD2948807A10B94FF0FF30F8E7264AB8
:105250001268917A244A526810786B460222FCF751
:1052600036F810B14FF0FF30EAE79DF801009DF8E5
:10527000001040EA0125A54203DA00203070401EEC
:10528000DEE7194840684088B5EB600F17DD164A25
:105290001268517C144A526810786B460122FCF760
:1052A00016F810B14FF0FF30CAE79DF8000000F08B
:1052B000100020B100F05AF86FF00100C0E7E2B230
:1052C000094B1B68D97A084B5B6818783B46FBF79B
:1052D000FEFF10B14FF0FF30B2E795FBF4F0401E37
:1052E00030700020ACE7000044000020F8B5044610
:1052F0000D46164616B94FF0FF30F8BD1A48807AB1
:1053000010B94FF0FF30F8E720128DF80000E0B23E
:105310008DF801009DF80100284413494968498926
:10532000884202DD4FF0FF30E7E70F4A1268117E36
:105330000D4A526810786B460222FCF76EF810B1E5
:105340004FF0FF30D9E7EAB2074B1B68597D064B97
:105350005B6818783346FBF7BAFF10B14FF0FF30A7
:10536000CBE70020C9E700004400002008B57048E2
:10537000807A10B94FF0FF3008BD002000906C4AD1
:105380001268D17B6A4A526810786B460122FCF79A
:1053900044F810B14FF0FF30EEE7654A12685179DA
:1053A000634A526810786B460122FCF736F810B158
:1053B0004FF0FF30E0E75E4A126811795C4A5268AC
:1053C00010786B460122FCF728F810B14FF0FF303F
:1053D000D2E7574890F82400002853D00C200090C2
:1053E000534A12681179524A526810786B4601226A
:1053F000FCF713F810B14FF0FF30BDE73220FDF796
:1054000087FFC02000904A48807A00F0010020B158
:105410009DF8000040F020000090454A1268117984
:10542000434A526810786B460122FBF7F6FF10B131
:105430004FF0FF30A0E73E48407C10B102200090C2
:1054400001E0002000903A4A1268D17B384A526845
:1054500010786B460122FBF7E0FF10B14FF0FF30F0
:105460008AE700200090324A12685179304A526827
:1054700010786B460122FBF7D0FF002855D04FF083
:10548000FF3079E704200090294A12681179284AF0
:10549000526810786B460122FBF7BFFF10B14FF046
:1054A000FF3069E72248807C20B92148807A00F0EB
:1054B000010010B94020009001E0602000901C4ADB
:1054C000126811791A4A526810786B460122FBF76C
:1054D000A4FF10B14FF0FF304EE73220FDF718FF68
:1054E0001348407C10B10120009001E000200090A2
:1054F0000F4A1268D17B0E4A526810786B4601221F
:10550000FBF78BFF10B14FF0FF3035E7084A126808
:105510005179074A52681078054B10330122FBF786
:105520007CFF10B14FF0FF3026E7002024E7000099
:10553000440000202DE9F04F8DB083460F46022035
:105540000C90424890F8240020B1002000F068F947
:10555000012600E0002603A8FFF722FC05A8FFF7BC
:10556000C7FB01A8FFF766FC02A8FFF78BFC3748D2
:1055700090F80AA004A8FFF70BFC002407E0002223
:1055800039465846FEF7CCFD00B902E0641C022CF7
:10559000F5DB00BF022C01D1002528E0002407E044
:1055A000012206A909A8FEF7BBFD00B902E0641CB0
:1055B000022CF5DB00BF022C01D1002517E006A963
:1055C0003846FDF7BFFA00F0FF0809A95846FFF773
:1055D0001FF800F0FF090025B9F1000F01D145F0D7
:1055E0000105B8F1000F01D145F0020500BFFF2011
:1055F00016490872FF2115484172C1724FF6FF71BA
:10560000C181FF218172017401210173BDF80C0079
:1056100000F04EF99DF8140000F01AF8BDF80400EF
:1056200000F0C0F9BDF8080000F0FEF9504600F0A7
:1056300049FA9DF81000FFF7C1F916B1012000F0FA
:10564000EFF828460DB0BDE8F08F000044000020C0
:1056500038B504461E48807A10B94FF0FF3038BD87
:10566000022C06D0042C07D0082C08D0102C0CD10A
:1056700008E0002000900BE00820009008E01020D7
:10568000009005E01820009002E04FF0FF30E6E7C0
:1056900000BF0F48407A9DF80010B0EBE10F01D138
:1056A0000020DCE70A4A1268D179094A526810786A
:1056B0006B460122FBF7B1FE10B14FF0FF30CEE791
:1056C0009DF80000C110024841720020C7E70000A9
:1056D0004400002038B504465048807CA04201D1E7
:1056E000002038BD002C46D04C4A126811794B4A34
:1056F000526810786B460122FBF7E9FD10B14FF0BC
:10570000FF30EEE79DF8000020F020000090434AB3
:1057100012681179414A526810786B460122FBF7F2
:105720007CFE10B14FF0FF30DBE70320FDF7F0FD0A
:1057300002200090394890F8220020B19DF8000026
:1057400040F080000090354890F8230020B19DF88B
:10575000000040F030000090304A1268117D2F4A5E
:10576000526810786B460122FBF757FE002851D093
:105770004FF0FF30B5E7294A12681179274A52687D
:1057800010786B460122FBF7A2FD10B14FF0FF30FD
:10579000A7E72248807A00F0010028B19DF80000B8
:1057A00040F02000009004E09DF8000020F0200070
:1057B00000901A4A12681179184A526810786B469C
:1057C0000122FBF72AFE10B14FF0FF3089E70320DA
:1057D000FDF79EFD114890F8220010B18020009046
:1057E00001E0002000900D4890F8230020B19DF8C2
:1057F000000040F030000090084A1268117D074A0E
:10580000526810786B460122FBF707FE10B14FF08B
:10581000FF3066E701488474002062E744000020FE
:1058200038B50446214890F82400A04201D1002058
:1058300038BD24B31D4890F8250010B94FF0FF3053
:10584000F6E7002000F070FA0020FFF743FF174949
:10585000C88C00F0E9F800200090144949680878E5
:105860006B4601222321FBF7D8FD01210F4880F868
:105870002410012000F058FAFFF778FD13E0002013
:1058800000F052FA0948007C0090084949680878FD
:105890006B4601222321FBF7C0FD0021034880F85D
:1058A0002410FFF763FD0020C2E700004400002041
:1058B00038B504461F48807A10B94FF0FF3038BD24
:1058C000FA2C09D0B4F5FA7F09D0B4F57A7F09D063
:1058D000B4F5FA6F0CD108E0002000900BE008202E
:1058E000009008E01020009005E01820009002E0F1
:1058F0004FF0FF30E3E700BF0E48007A9DF800103C
:10590000B0EBE10F01D10020D9E70A4A1268917982
:10591000084A526810786B460122FBF77EFD10B1F1
:105920004FF0FF30CBE79DF80000C010014908722E
:105930000020C4E74400002038B50446184890F819
:105940002300A04201D1002038BD14B130200090C6
:1059500001E0002000901248807C20B19DF80000FA
:1059600040F0020000900E4890F8220020B19DF80F
:10597000000040F080000090094A1268117D084A3A
:10598000526810786B460122FBF747FD10B14FF0CB
:10599000FF30D9E7024880F823400020D4E7000018
:1059A0004400002038B504461E48807A10B94FF0F4
:1059B000FF3038BDBC2C02DB0120009015E0622CCA
:1059C00002DB0220009010E02A2C02DB0320009072
:1059D0000BE0142C02DB0420009006E00A2C02DB12
:1059E0000520009001E0062000900E48C07A9DF846
:1059F0000010884201D10020DBE70A4A1268917842
:105A0000084A526810786B460122FBF706FD10B178
:105A10004FF0FF30CDE79DF800100248C172002022
:105A2000C7E700004400002038B504462448807AC7
:105A300010B94FF0FF3038BD214890F8240010B164
:105A40004FF0FF30F7E71E48007D50B134B1282CED
:105A500004DCE0B2FFF77AFB0020ECE70020FFF760
:105A600075FB042C01DA042404E0B4F57A7F01DD2F
:105A70004FF47A744FF47A7090FBF4F0401EC0B289
:105A800000900F4A126851780D4A526810786B46A0
:105A90000122FBF7C2FC10B14FF0FF30CBE79DF8BD
:105AA0000000401C4FF47A7191FBF0F081B2044881
:105AB000C1810146C9894810FFF774FF0020BAE789
:105AC0004400002038B5044604F0700010B10120F5
:105AD000009005E014B10020009001E0402000900B
